{
    "contractName": "cTwitter",
    "abi": [
        {
            "inputs": [],
            "stateMutability": "nonpayable",
            "type": "constructor"
        },
        {
            "inputs": [
                {
                    "internalType": "string",
                    "name": "_name",
                    "type": "string"
                },
                {
                    "internalType": "string",
                    "name": "_image",
                    "type": "string"
                },
                {
                    "internalType": "string",
                    "name": "_post",
                    "type": "string"
                }
            ],
            "name": "addPost",
            "outputs": [],
            "stateMutability": "nonpayable",
            "type": "function"
        },
        {
            "inputs": [],
            "name": "adminAddress",
            "outputs": [
                {
                    "internalType": "address",
                    "name": "",
                    "type": "address"
                }
            ],
            "stateMutability": "view",
            "type": "function"
        },
        {
            "inputs": [
                {
                    "internalType": "address",
                    "name": "_address",
                    "type": "address"
                }
            ],
            "name": "banAddress",
            "outputs": [
                {
                    "internalType": "bool",
                    "name": "",
                    "type": "bool"
                }
            ],
            "stateMutability": "nonpayable",
            "type": "function"
        },
        {
            "inputs": [
                {
                    "internalType": "address",
                    "name": "_address",
                    "type": "address"
                }
            ],
            "name": "checkBanStatus",
            "outputs": [
                {
                    "internalType": "bool",
                    "name": "",
                    "type": "bool"
                }
            ],
            "stateMutability": "view",
            "type": "function"
        },
        {
            "inputs": [
                {
                    "internalType": "uint256",
                    "name": "_index",
                    "type": "uint256"
                },
                {
                    "internalType": "string",
                    "name": "_comment",
                    "type": "string"
                }
            ],
            "name": "comment",
            "outputs": [],
            "stateMutability": "nonpayable",
            "type": "function"
        },
        {
            "inputs": [
                {
                    "internalType": "uint256",
                    "name": "_index",
                    "type": "uint256"
                }
            ],
            "name": "getCommentLength",
            "outputs": [
                {
                    "internalType": "uint256",
                    "name": "",
                    "type": "uint256"
                }
            ],
            "stateMutability": "view",
            "type": "function"
        },
        {
            "inputs": [
                {
                    "internalType": "uint256",
                    "name": "_index",
                    "type": "uint256"
                }
            ],
            "name": "getComments",
            "outputs": [
                {
                    "components": [
                        {
                            "internalType": "address",
                            "name": "commenter",
                            "type": "address"
                        },
                        {
                            "internalType": "uint256",
                            "name": "date",
                            "type": "uint256"
                        },
                        {
                            "internalType": "string",
                            "name": "comment",
                            "type": "string"
                        }
                    ],
                    "internalType": "struct cTwitter.Comment[]",
                    "name": "",
                    "type": "tuple[]"
                }
            ],
            "stateMutability": "view",
            "type": "function"
        },
        {
            "inputs": [
                {
                    "internalType": "uint256",
                    "name": "_index",
                    "type": "uint256"
                }
            ],
            "name": "getPost",
            "outputs": [
                {
                    "internalType": "address payable",
                    "name": "",
                    "type": "address"
                },
                {
                    "internalType": "string",
                    "name": "",
                    "type": "string"
                },
                {
                    "internalType": "string",
                    "name": "",
                    "type": "string"
                },
                {
                    "internalType": "string",
                    "name": "",
                    "type": "string"
                },
                {
                    "internalType": "uint256",
                    "name": "",
                    "type": "uint256"
                },
                {
                    "internalType": "uint256",
                    "name": "",
                    "type": "uint256"
                }
            ],
            "stateMutability": "view",
            "type": "function"
        },
        {
            "inputs": [],
            "name": "getPostsLength",
            "outputs": [
                {
                    "internalType": "uint256",
                    "name": "",
                    "type": "uint256"
                }
            ],
            "stateMutability": "view",
            "type": "function"
        },
        {
            "inputs": [
                {
                    "internalType": "address",
                    "name": "_user",
                    "type": "address"
                },
                {
                    "internalType": "uint256",
                    "name": "_index",
                    "type": "uint256"
                }
            ],
            "name": "isPostLiked",
            "outputs": [
                {
                    "internalType": "bool",
                    "name": "",
                    "type": "bool"
                }
            ],
            "stateMutability": "view",
            "type": "function"
        },
        {
            "inputs": [
                {
                    "internalType": "uint256",
                    "name": "_index",
                    "type": "uint256"
                }
            ],
            "name": "likePost",
            "outputs": [],
            "stateMutability": "nonpayable",
            "type": "function"
        },
        {
            "inputs": [
                {
                    "internalType": "address",
                    "name": "_address",
                    "type": "address"
                }
            ],
            "name": "unBanAddress",
            "outputs": [
                {
                    "internalType": "bool",
                    "name": "",
                    "type": "bool"
                }
            ],
            "stateMutability": "nonpayable",
            "type": "function"
        }
    ],
    "bytecode": "608060405234801561001057600080fd5b5060008055600180546001600160a01b03191633179055610d61806100366000396000f3fe608060405234801561001057600080fd5b50600436106100b45760003560e01c8063725009d311610071578063725009d31461019b5780637f49f709146101ae578063815cf74d146101e4578063b496b5b01461021d578063e289008e14610249578063fc6f94681461025157600080fd5b80631805c523146100b95780631f5a5cd5146100ce578063224ae14a1461010157806323edf6971461011457806340731c241461013457806347a122d214610159575b600080fd5b6100cc6100c7366004610a42565b61027c565b005b6100ee6100dc366004610a89565b60009081526006602052604090205490565b6040519081526020015b60405180910390f35b6100cc61010f366004610aa2565b610338565b610127610122366004610a89565b61041c565b6040516100f89190610b77565b610147610142366004610a89565b610540565b6040516100f896959493929190610bff565b61018b610167366004610c7b565b6001600160a01b03166000908152600360205260409020805460ff19169055600190565b60405190151581526020016100f8565b6100cc6101a9366004610a89565b61074b565b61018b6101bc366004610c7b565b6001600160a01b03166000908152600360205260409020805460ff1916600190811790915590565b61018b6101f2366004610c9d565b6001600160a01b03919091166000908152600460209081526040808320938352929052205460ff1690565b61018b61022b366004610c7b565b6001600160a01b031660009081526003602052604090205460ff1690565b6000546100ee565b600154610264906001600160a01b031681565b6040516001600160a01b0390911681526020016100f8565b3361028681610814565b826102908161089d565b600084815260056020908152604080832081516060810183523381524281850190815292810188815282546001808201855593875295859020825160039097020180546001600160a01b0319166001600160a01b039097169690961786559251918501919091559051805191939261031092600285019290910190610906565b505050600084815260066020526040812080549161032d83610cc7565b919050555050505050565b3361034281610814565b6040805160c081018252338152602080820187815282840187905260608301869052426080840152600060a084018190528054815260028352938420835181546001600160a01b0319166001600160a01b039091161781559051805191926103b292600185019290910190610906565b50604082015180516103ce916002840191602090910190610906565b50606082015180516103ea916003840191602090910190610906565b506080820151600482015560a09091015160059091015560008054908061041083610cc7565b91905055505050505050565b606060056000838152602001908152602001600020805480602002602001604051908101604052809291908181526020016000905b82821015610535576000848152602090819020604080516060810182526003860290920180546001600160a01b03168352600181015493830193909352600283018054929392918401916104a490610cf0565b80601f01602080910402602001604051908101604052809291908181526020018280546104d090610cf0565b801561051d5780601f106104f25761010080835404028352916020019161051d565b820191906000526020600020905b81548152906001019060200180831161050057829003601f168201915b50505050508152505081526020019060010190610451565b505050509050919050565b60006060806060600080866105548161089d565b600088815260026020819052604090912080546004820154600583015460018401805494956001600160a01b0390941694909386019260038701929091859061059c90610cf0565b80601f01602080910402602001604051908101604052809291908181526020018280546105c890610cf0565b80156106155780601f106105ea57610100808354040283529160200191610615565b820191906000526020600020905b8154815290600101906020018083116105f857829003601f168201915b5050505050945083805461062890610cf0565b80601f016020809104026020016040519081016040528092919081815260200182805461065490610cf0565b80156106a15780601f10610676576101008083540402835291602001916106a1565b820191906000526020600020905b81548152906001019060200180831161068457829003601f168201915b505050505093508280546106b490610cf0565b80601f01602080910402602001604051908101604052809291908181526020018280546106e090610cf0565b801561072d5780601f106107025761010080835404028352916020019161072d565b820191906000526020600020905b81548152906001019060200180831161071057829003601f168201915b50505050509250975097509750975097509750505091939550919395565b806107558161089d565b3361075f81610814565b33600090815260046020908152604080832086845290915290205460ff16156107cf5760405162461bcd60e51b815260206004820152601760248201527f416c7265616479206c696b6564207468697320706f737400000000000000000060448201526064015b60405180910390fd5b3360009081526004602090815260408083208684528252808320805460ff191660011790556002909152812060050180549161080a83610cc7565b9190505550505050565b6001600160a01b03811660009081526003602052604090205460ff1615156001141561089a5760405162461bcd60e51b815260206004820152602f60248201527f596f752068617665206265656e2062616e20616e642063616e6e6f742063616c60448201526e36103a3434b990333ab731ba34b7b760891b60648201526084016107c6565b50565b600081815260026020526040902080546001600160a01b03166109025760405162461bcd60e51b815260206004820181905260248201527f506f73742077697468207468697320494420646f6573206e6f7420657869737460448201526064016107c6565b5050565b82805461091290610cf0565b90600052602060002090601f016020900481019282610934576000855561097a565b82601f1061094d57805160ff191683800117855561097a565b8280016001018555821561097a579182015b8281111561097a57825182559160200191906001019061095f565b5061098692915061098a565b5090565b5b80821115610986576000815560010161098b565b634e487b7160e01b600052604160045260246000fd5b600082601f8301126109c657600080fd5b813567ffffffffffffffff808211156109e1576109e161099f565b604051601f8301601f19908116603f01168101908282118183101715610a0957610a0961099f565b81604052838152866020858801011115610a2257600080fd5b836020870160208301376000602085830101528094505050505092915050565b60008060408385031215610a5557600080fd5b82359150602083013567ffffffffffffffff811115610a7357600080fd5b610a7f858286016109b5565b9150509250929050565b600060208284031215610a9b57600080fd5b5035919050565b600080600060608486031215610ab757600080fd5b833567ffffffffffffffff80821115610acf57600080fd5b610adb878388016109b5565b94506020860135915080821115610af157600080fd5b610afd878388016109b5565b93506040860135915080821115610b1357600080fd5b50610b20868287016109b5565b9150509250925092565b6000815180845260005b81811015610b5057602081850181015186830182015201610b34565b81811115610b62576000602083870101525b50601f01601f19169290920160200192915050565b60006020808301818452808551808352604092508286019150828160051b87010184880160005b83811015610bf157888303603f19018552815180516001600160a01b0316845287810151888501528601516060878501819052610bdd81860183610b2a565b968901969450505090860190600101610b9e565b509098975050505050505050565b6001600160a01b038716815260c060208201819052600090610c2390830188610b2a565b8281036040840152610c358188610b2a565b90508281036060840152610c498187610b2a565b6080840195909552505060a00152949350505050565b80356001600160a01b0381168114610c7657600080fd5b919050565b600060208284031215610c8d57600080fd5b610c9682610c5f565b9392505050565b60008060408385031215610cb057600080fd5b610cb983610c5f565b946020939093013593505050565b6000600019821415610ce957634e487b7160e01b600052601160045260246000fd5b5060010190565b600181811c90821680610d0457607f821691505b60208210811415610d2557634e487b7160e01b600052602260045260246000fd5b5091905056fea26469706673582212202b05ecee01615a372b46b4740b7ab23a817cea4f24771f2f1b529082d5abed4064736f6c63430008090033",
    "sourcePath": "c:/Users/PC/Desktop/work/dacade/celo_twitter/contract/cTwitter.sol",
    "compiler": {
        "name": "solc",
        "version": "0.8.9+commit.e5eed63a"
    },
    "functionHashes": {
        "addPost(string,string,string)": "224ae14a",
        "adminAddress()": "fc6f9468",
        "banAddress(address)": "7f49f709",
        "checkBanStatus(address)": "b496b5b0",
        "comment(uint256,string)": "1805c523",
        "getCommentLength(uint256)": "1f5a5cd5",
        "getComments(uint256)": "23edf697",
        "getPost(uint256)": "40731c24",
        "getPostsLength()": "e289008e",
        "isPostLiked(address,uint256)": "815cf74d",
        "likePost(uint256)": "725009d3",
        "unBanAddress(address)": "47a122d2"
    },
    "gasEstimates": {
        "creation": {
            "codeDepositCost": "685000",
            "executionCost": "29962",
            "totalCost": "714962"
        },
        "external": {
            "addPost(string,string,string)": "infinite",
            "adminAddress()": "2447",
            "banAddress(address)": "24695",
            "checkBanStatus(address)": "2615",
            "comment(uint256,string)": "infinite",
            "getCommentLength(uint256)": "2450",
            "getComments(uint256)": "infinite",
            "getPost(uint256)": "infinite",
            "getPostsLength()": "2369",
            "isPostLiked(address,uint256)": "2692",
            "likePost(uint256)": "55700",
            "unBanAddress(address)": "24772"
        },
        "internal": {
            "isAdminFunc()": "infinite",
            "onlyNotBanFunc(address)": "infinite",
            "postExist(uint256)": "infinite"
        }
    }
}